:100000000C9434000C9449000C9449000C94490061
:100010000C9449000C9449000C9449000C9449003C
:100020000C9449000C9449000C9449000C9449002C
:100030000C9449000C9449000C9449000C9449001C
:100040000C9449000C9449000C9449000C9449000C
:100050000C9449000C9449000C9449000C944900FC
:100060000C9449000C94490011241FBECFEFD8E036
:10007000DEBFCDBF11E0A0E0B1E0E4ECF1E002C0F2
:1000800005900D92AE31B107D9F70E9495000C94FE
:10009000E0000C9400009BB1937C9BB980FD5D9ABD
:1000A00081FD5C9A82FD5B9A83FD5A9A2B9A85E0CA
:1000B0008A95F1F700002B988FE891E00197F1F70E
:1000C00000C000000895CF93C82F2C9882958F70A0
:1000D0000E944B008C2F8F700E944B008FE39FE19A
:1000E0000197F1F700C00000CF9108950F931F937F
:1000F000CF938C01F801C081C11104C0CF911F9131
:100100000F9108950F5F1F4F2C9A8C2F82958F703F
:100110000E944B008C2F8F700E944B008FE39FE159
:100120000197F1F700C00000E5CF84B1886184B980
:100130008AB18C638AB985B1877E85B92FEF80E754
:1001400092E0215080409040E1F700C0000083E041
:100150000E944B008FE19EE40197F1F700C0000080
:1001600083E00E944B0087E592E00197F1F700C021
:10017000000083E00E944B0082E00E944B0088E276
:100180000E9463008CE00E94630086E00E9463008E
:1001900081E00E9463008FE39FE10197F1F700C0C7
:1001A000000080E80E94630080E091E00E947600F9
:1001B00080EC0E9463008DE091E00E947600FFCF0A
:0401C000F894FFCFE1
:1001C40048656C6C6F20576F726C6421004D6964D4
:0E01D4006E696768742D576F726B657200005C
:00000001FF
